{
  "_format": "hh-sol-artifact-1",
  "contractName": "CrowdFunding",
  "sourceName": "contracts/CrowdFunding.sol",
  "abi": [
    {
      "inputs": [
        {
          "internalType": "uint256",
          "name": "",
          "type": "uint256"
        }
      ],
      "name": "campaigns",
      "outputs": [
        {
          "internalType": "address",
          "name": "owner",
          "type": "address"
        },
        {
          "internalType": "string",
          "name": "title",
          "type": "string"
        },
        {
          "internalType": "string",
          "name": "description",
          "type": "string"
        },
        {
          "internalType": "uint256",
          "name": "target",
          "type": "uint256"
        },
        {
          "internalType": "uint256",
          "name": "deadline",
          "type": "uint256"
        },
        {
          "internalType": "uint256",
          "name": "amountCollected",
          "type": "uint256"
        },
        {
          "internalType": "string",
          "name": "image",
          "type": "string"
        }
      ],
      "stateMutability": "view",
      "type": "function"
    },
    {
      "inputs": [
        {
          "internalType": "address",
          "name": "_owner",
          "type": "address"
        },
        {
          "internalType": "string",
          "name": "_title",
          "type": "string"
        },
        {
          "internalType": "string",
          "name": "_description",
          "type": "string"
        },
        {
          "internalType": "uint256",
          "name": "target",
          "type": "uint256"
        },
        {
          "internalType": "uint256",
          "name": "_deadline",
          "type": "uint256"
        },
        {
          "internalType": "string",
          "name": "_image",
          "type": "string"
        }
      ],
      "name": "createCampaign",
      "outputs": [
        {
          "internalType": "uint256",
          "name": "",
          "type": "uint256"
        }
      ],
      "stateMutability": "nonpayable",
      "type": "function"
    },
    {
      "inputs": [
        {
          "internalType": "uint256",
          "name": "_id",
          "type": "uint256"
        }
      ],
      "name": "donateToCampaign",
      "outputs": [],
      "stateMutability": "payable",
      "type": "function"
    },
    {
      "inputs": [],
      "name": "getCampaigns",
      "outputs": [
        {
          "components": [
            {
              "internalType": "address",
              "name": "owner",
              "type": "address"
            },
            {
              "internalType": "string",
              "name": "title",
              "type": "string"
            },
            {
              "internalType": "string",
              "name": "description",
              "type": "string"
            },
            {
              "internalType": "uint256",
              "name": "target",
              "type": "uint256"
            },
            {
              "internalType": "uint256",
              "name": "deadline",
              "type": "uint256"
            },
            {
              "internalType": "uint256",
              "name": "amountCollected",
              "type": "uint256"
            },
            {
              "internalType": "string",
              "name": "image",
              "type": "string"
            },
            {
              "internalType": "address[]",
              "name": "donators",
              "type": "address[]"
            },
            {
              "internalType": "uint256[]",
              "name": "donations",
              "type": "uint256[]"
            }
          ],
          "internalType": "struct CrowdFunding.Campaign[]",
          "name": "",
          "type": "tuple[]"
        }
      ],
      "stateMutability": "view",
      "type": "function"
    },
    {
      "inputs": [
        {
          "internalType": "uint256",
          "name": "_id",
          "type": "uint256"
        }
      ],
      "name": "getDonators",
      "outputs": [
        {
          "internalType": "address[]",
          "name": "",
          "type": "address[]"
        },
        {
          "internalType": "uint256[]",
          "name": "",
          "type": "uint256[]"
        }
      ],
      "stateMutability": "view",
      "type": "function"
    },
    {
      "inputs": [],
      "name": "numberofCampaigns",
      "outputs": [
        {
          "internalType": "uint256",
          "name": "",
          "type": "uint256"
        }
      ],
      "stateMutability": "view",
      "type": "function"
    }
  ],
  "bytecode": "0x6080604052600060015534801561001557600080fd5b50610f6e806100256000396000f3fe6080604052600436106100555760003560e01c80630fa91fa91461005a578063141961bc1461009157806342a4fda8146100c45780639943e3a1146100d9578063a6b0363314610107578063e21191fb14610129575b600080fd5b34801561006657600080fd5b5061007a61007536600461095a565b61013f565b604051610088929190610973565b60405180910390f35b34801561009d57600080fd5b506100b16100ac36600461095a565b61020e565b6040516100889796959493929190610a3d565b6100d76100d236600461095a565b6103eb565b005b3480156100e557600080fd5b506100f96100f4366004610b4a565b6104ad565b604051908152602001610088565b34801561011357600080fd5b5061011c6105ad565b6040516100889190610c77565b34801561013557600080fd5b506100f960015481565b600081815260208181526040918290206007810180548451818502810185019095528085526060948594929360080192909184918301828280156101ac57602002820191906000526020600020905b81546001600160a01b0316815260019091019060200180831161018e575b50505050509150808054806020026020016040519081016040528092919081815260200182805480156101fe57602002820191906000526020600020905b8154815260200190600101908083116101ea575b5050505050905091509150915091565b600060208190529081526040902080546001820180546001600160a01b03909216929161023a90610d84565b80601f016020809104026020016040519081016040528092919081815260200182805461026690610d84565b80156102b35780601f10610288576101008083540402835291602001916102b3565b820191906000526020600020905b81548152906001019060200180831161029657829003601f168201915b5050505050908060020180546102c890610d84565b80601f01602080910402602001604051908101604052809291908181526020018280546102f490610d84565b80156103415780601f1061031657610100808354040283529160200191610341565b820191906000526020600020905b81548152906001019060200180831161032457829003601f168201915b50505050509080600301549080600401549080600501549080600601805461036890610d84565b80601f016020809104026020016040519081016040528092919081815260200182805461039490610d84565b80156103e15780601f106103b6576101008083540402835291602001916103e1565b820191906000526020600020905b8154815290600101906020018083116103c457829003601f168201915b5050505050905087565b600081815260208181526040808320600781018054600180820183559186528486200180546001600160a01b0319163317905560088201805491820181558552928420349301839055805491519293909290916001600160a01b03169084908381818185875af1925050503d8060008114610482576040519150601f19603f3d011682016040523d82523d6000602084013e610487565b606091505b5050905080156104a7578282600501546104a19190610dce565b60058301555b50505050565b60015460009081526020819052604081206004810154421161052a5760405162461bcd60e51b815260206004820152602c60248201527f54686520646561646c696e652073686f756c642062652061206461746520696e60448201526b103a343290333aba3ab9329760a11b606482015260840160405180910390fd5b80546001600160a01b0319166001600160a01b038916178155600181016105518882610e36565b50600281016105608782610e36565b5060048101849055600060058201556006810161057d8482610e36565b506001805490600061058e83610ef6565b9190505550600180546105a19190610f0f565b98975050505050505050565b6060600060015467ffffffffffffffff8111156105cc576105cc610aa7565b60405190808252806020026020018201604052801561065557816020015b61064260405180610120016040528060006001600160a01b0316815260200160608152602001606081526020016000815260200160008152602001600081526020016060815260200160608152602001606081525090565b8152602001906001900390816105ea5790505b50905060005b60015481101561095457600081815260208181526040918290208251610120810190935280546001600160a01b03168352600181018054919392849290840191906106a590610d84565b80601f01602080910402602001604051908101604052809291908181526020018280546106d190610d84565b801561071e5780601f106106f35761010080835404028352916020019161071e565b820191906000526020600020905b81548152906001019060200180831161070157829003601f168201915b5050505050815260200160028201805461073790610d84565b80601f016020809104026020016040519081016040528092919081815260200182805461076390610d84565b80156107b05780601f10610785576101008083540402835291602001916107b0565b820191906000526020600020905b81548152906001019060200180831161079357829003601f168201915b505050505081526020016003820154815260200160048201548152602001600582015481526020016006820180546107e790610d84565b80601f016020809104026020016040519081016040528092919081815260200182805461081390610d84565b80156108605780601f1061083557610100808354040283529160200191610860565b820191906000526020600020905b81548152906001019060200180831161084357829003601f168201915b50505050508152602001600782018054806020026020016040519081016040528092919081815260200182805480156108c257602002820191906000526020600020905b81546001600160a01b031681526001909101906020018083116108a4575b505050505081526020016008820180548060200260200160405190810160405280929190818152602001828054801561091a57602002820191906000526020600020905b815481526020019060010190808311610906575b50505050508152505083838151811061093557610935610f22565b602002602001018190525050808061094c90610ef6565b91505061065b565b50919050565b60006020828403121561096c57600080fd5b5035919050565b604080825283519082018190526000906020906060840190828701845b828110156109b55781516001600160a01b031684529284019290840190600101610990565b5050508381038285015284518082528583019183019060005b818110156109ea578351835292840192918401916001016109ce565b5090979650505050505050565b6000815180845260005b81811015610a1d57602081850181015186830182015201610a01565b506000602082860101526020601f19601f83011685010191505092915050565b6001600160a01b038816815260e060208201819052600090610a61908301896109f7565b8281036040840152610a7381896109f7565b90508660608401528560808401528460a084015282810360c0840152610a9981856109f7565b9a9950505050505050505050565b634e487b7160e01b600052604160045260246000fd5b600082601f830112610ace57600080fd5b813567ffffffffffffffff80821115610ae957610ae9610aa7565b604051601f8301601f19908116603f01168101908282118183101715610b1157610b11610aa7565b81604052838152866020858801011115610b2a57600080fd5b836020870160208301376000602085830101528094505050505092915050565b60008060008060008060c08789031215610b6357600080fd5b86356001600160a01b0381168114610b7a57600080fd5b9550602087013567ffffffffffffffff80821115610b9757600080fd5b610ba38a838b01610abd565b96506040890135915080821115610bb957600080fd5b610bc58a838b01610abd565b9550606089013594506080890135935060a0890135915080821115610be957600080fd5b50610bf689828a01610abd565b9150509295509295509295565b600081518084526020808501945080840160005b83811015610c3c5781516001600160a01b031687529582019590820190600101610c17565b509495945050505050565b600081518084526020808501945080840160005b83811015610c3c57815187529582019590820190600101610c5b565b60006020808301818452808551808352604092508286019150828160051b87010184880160005b83811015610d7657888303603f19018552815180516001600160a01b0316845261012088820151818a870152610cd6828701826109f7565b9150508782015185820389870152610cee82826109f7565b606084810151908801526080808501519088015260a0808501519088015260c080850151888303828a01529193509150610d2883826109f7565b9250505060e08083015186830382880152610d438382610c03565b925050506101008083015192508582038187015250610d628183610c47565b968901969450505090860190600101610c9e565b509098975050505050505050565b600181811c90821680610d9857607f821691505b60208210810361095457634e487b7160e01b600052602260045260246000fd5b634e487b7160e01b600052601160045260246000fd5b80820180821115610de157610de1610db8565b92915050565b601f821115610e3157600081815260208120601f850160051c81016020861015610e0e5750805b601f850160051c820191505b81811015610e2d57828155600101610e1a565b5050505b505050565b815167ffffffffffffffff811115610e5057610e50610aa7565b610e6481610e5e8454610d84565b84610de7565b602080601f831160018114610e995760008415610e815750858301515b600019600386901b1c1916600185901b178555610e2d565b600085815260208120601f198616915b82811015610ec857888601518255948401946001909101908401610ea9565b5085821015610ee65787850151600019600388901b60f8161c191681555b5050505050600190811b01905550565b600060018201610f0857610f08610db8565b5060010190565b81810381811115610de157610de1610db8565b634e487b7160e01b600052603260045260246000fdfea26469706673582212203ad4b6645cabefecf510c3280a48b96a5ee60d5ae16082ef3fa0c5c59f093d3064736f6c63430008110033",
  "linkReferences": {},
  "deployedLinkReferences": {}
}